:10090C0012089E1208F212072D12085212001E1223
:04091C0007F780F267
:10062600E4F50920B1107F0A12000330B1FD7F0AFC
:1006360012000375090120B0107F0A12000330B0C2
:10064600FD7F0A12000375090220B2107F0A12000C
:100656000330B2FD7F0A12000375090320B3107F31
:100666000A12000330B3FD7F0A120003750904AFB6
:01067600097A
:010677002260
:10092000C2A6C2A58F80D2A7120940C2A702094061
:10093000D2A6C2A58F80D2A7120940C2A702094041
:10089E007F011209207F021209207F061209207F94
:0E08AE000C1209207F141209207F3C02092041
:10087B008F198D1A8B1BE519B40106E51A247F809D
:10088B0009E519B40208E51A24BFFF120920AF1BB2
:03089B000209301F
:0A07C7008F088D098B0A8A0B890C3C
:1007D100E4F50DF50DAB0AAA0BA90C850D82758305
:1007E100001205A4FB600EE509250DFDAF081208F6
:0507F1007B050D80E016
:0107F60022E0
:080678008F138D148A158B16F7
:10068000851718E518D394004031E514251814FD9A
:10069000C005AE15AF167C007D0A1205D1ED2430E1
:1006A000FBD005AF1312087BAE15AF167C007D0A98
:0B06B0001205D18E158F16151880C89A
:0106BB00221C
:1003C200E4F509C293D292D291D2902097107F0A7B
:1003D2001200033097FD7F0A12000375090120966F
:1003E200107F0A1200033096FD7F0A12000375097E
:1003F200052095107F0A1200033095FD7F0A120036
:10040200037509092094107F0A1200033094FD7FBE
:100412000A12000375090DD293C292D291D2902092
:1004220097107F0A1200033097FD7F0A12000375AE
:1004320009022096107F0A1200033096FD7F0A12ED
:1004420000037509062095107F0A1200033095FDFE
:100452007F0A12000375090A2094107F0A12000312
:100462003094FD7F0A12000375090ED293D292C214
:1004720091D2902097107F0A1200033097FD7F0AD5
:100482001200037509032096107F0A1200033096AA
:10049200FD7F0A1200037509072095107F0A1200DA
:1004A200033095FD7F0A12000375090B2094107F1B
:1004B2000A1200033094FD7F0A12000375090FD25D
:1004C20093D292D291C2902097107F0A12000330E9
:1004D20097FD7F0A1200037509042096107F0A1205
:1004E20000033096FD7F0A1200037509082095105B
:1004F2007F0A1200033095FD7F0A12000375090C72
:100502002094107F0A1200033094FD7F0A12000328
:05051200750910AF099E
:0105170022C1
:1008D80073797374656D2074696D653A00616C6134
:0A08E800726D20636C6F636B3A00C1
:1006F7008F118D12E512D39409400CE512FB7A0095
:10070700751702AD118019751701E4FBFAAD117F5A
:1007170002120678E51104FDE512FB7A0075170150
:060727007F021206782299
:100827008D0F8B10AD077F011206F77B3A7D037F93
:100837000212087BAD0F7F041206F77B3A7D067F15
:0B0847000212087BAD107F070206F7CD
:10072D00E51DB401157BFF7A0879D87D017F011293
:10073D0007C7AB23AD22AF218018E51DB402167B90
:10074D00FF7A0879E57D017F011207C7AB20AD1F48
:06075D00AF1E1208272266
:1008BC0001210B01220B01230B011E15011F0B0142
:0508CC00200B011D01DD
:100852001206268F27E527B40304151D8007E52716
:10086200B40405051DE4F527E51D7004751D02227B
:09087200E51DB40303751D01220C
:0608D100012A00012B00CA
:1008F20053890F438920C28FD28E758BA4758DA424
:0A090200D2ABD2AF43B708D2BB223C
:03001B000206BC1E
:1006BC00C0E0C0D0052AE52AB46405052B752A00D4
:1006CC00E52BB464210523E523B43C0505227523F1
:1006DC0000E522B43C0D0521752200E521B4180378
:0B06EC00752100752B00D0D0D0E0324B
:0F07630085280C85290D851C0EAB26AD25AF24EE
:10077200EF75F00AA42DF521EB75F00AA4250CF50E
:1007820022E50D75F00AA4250EF523FBAD22AF215B
:0307920002082733
:0F07950085280C85290D851C0EAB26AD25AF24BC
:1007A400EF75F00AA42DF51EEB75F00AA4250CF5DF
:1007B4001FE50D75F00AA4250EF520FBAD1FAF1E35
:0307C40002082701
:10001E007508011203C2EF640160030203C17FC0C1
:10002E001209207F0F1209201206268F27E527645A
:10003E000160030201D2E51D6401600302010CE5BB
:10004E002175F00A8485F025E52175F00A84F524E2
:10005E00E52275F00A8485F028E52275F00A84F50C
:10006E0026E52375F00A8485F01CE52375F00A84D5
:10007E00F529E508B401120524E524B40303E4F5DB
:10008E00241207637FC0120920E508B40212052569
:10009E00E525B40403E4F5251207637FC112092098
:1000AE00E508B404120526E526B40603E4F5261287
:1000BE0007637FC3120920E508B405120528E52859
:1000CE00B40A03E4F5281207637FC4120920E50879
:1000DE00B407120529E529B40603E4F529120763CE
:1000EE007FC6120920E508640860030201D2051CD0
:1000FE00E51CB40A03E4F51C1207630201CDE51DED
:10010E00640260030201D2E51E75F00A8485F025B3
:10011E00E51E75F00A84F524E51F75F00A8485F056
:10012E0028E51F75F00A84F526E52075F00A84850A
:10013E00F01CE52075F00A84F529E508B4011205D6
:10014E0024E524B40303E4F5241207957FC01209B5
:10015E0020E508B402120525E525B40503E4F525CE
:10016E001207957FC1120920E508B404120526E591
:10017E0026B40703E4F5261207957FC3120920E57E
:10018E0008B405120528E528B40A03E4F528120779
:10019E00957FC4120920E508B407120529E529B494
:1001AE000703E4F5291207957FC6120920E508B466
:1001BE000812051CE51CB40A03E4F51C1207957F12
:1001CE00C7120920E52764026003020369E51D6476
:1001DE000160030202A3E52175F00A8485F025E58E
:1001EE002175F00A84F524E52275F00A8485F0283D
:1001FE00E52275F00A84F526E52375F00A8485F06C
:10020E001CE52375F00A84F529E508B401121524BE
:10021E00E524B4FF037524021207637FC012092080
:10022E00E508B402121525E525B4FF037525031262
:10023E0007637FC1120920E508B404121526E526CE
:10024E00B4FF037526051207637FC3120920E50864
:10025E00B405121528E528B4FF03752809120763A3
:10026E007FC4120920E508B407121529E529B4FF49
:10027E00037529051207637FC6120920E508640875
:10028E006003020369151CE51CB4FF03751C0912FB
:10029E000763020364E51D64026003020369E51E41
:1002AE0075F00A8485F025E51E75F00A84F524E5BF
:1002BE001F75F00A8485F028E51F75F00A84F5266F
:1002CE00E52075F00A8485F01CE52075F00A84F5AA
:1002DE0029E508B401121524E524B4FF03752402A0
:1002EE001207957FC0120920E508B402121525E504
:1002FE0025B4FF037525031207957FC1120920E56A
:10030E0008B404121526E526B4FF03752605120758
:10031E00957FC3120920E508B405121528E528B407
:10032E00FF037528091207957FC4120920E508B44A
:10033E0007121529E529B4FF037529051207957FC4
:10034E00C6120920E508B40812151CE51CB4FF03FB
:10035E00751C091207957FC7120920E527B40320E3
:10036E00E508D3940140197F101209201508E508FD
:10037E0064036006E5086406702B15087F10802262
:10038E00E527B40420E508C3940850197F14120918
:10039E00200508E50864036005E508B406070508AE
:1003AE007F141209201203C2EF64026003020036AA
:0303BE0012089E84
:0103C1002219
:1007F700E521651E7029E522651F7023E523652025
:10080700701DB295E51F2401FFE433FEE5226F70EA
:1008170001EE600BAB23AD22AF2112082780E32244
:10000300AC071FEC60107D0AAC051DEC60F27E2F7F
:060013001EEE60F480FA0D
:0100190022C4
:040940007FF5DFFE62
:010944002290
:03000000020518DE
:0C051800787FE4F6D8FD75812B02055FAA
:1005A400BB010CE58229F582E5833AF583E022500C
:1005B40006E92582F8E622BBFE06E92582F8E22256
:0D05C400E58229F582E5833AF583E4932270
:1005D100BC000BBE0029EF8DF084FFADF022E4CC0E
:1005E100F875F008EF2FFFEE33FEEC33FCEE9DECD7
:1005F100984005FCEE9DFE0FD5F0E9E4CEFD22ED1D
:10060100F8F5F0EE8420D21CFEADF075F008EF2F66
:10061100FFED33FD4007985006D5F0F222C398FD57
:050621000FD5F0EA22F4
:1005240002090CE493A3F8E493A34003F68001F2D8
:1005340008DFF48029E493A3F85407240CC8C333D8
:10054400C4540F4420C8834004F456800146F6DFA7
:10055400E4800B01020408102040809008BCE47E73
:10056400019360BCA3FF543F30E509541FFEE4939C
:10057400A360010ECF54C025E060A840B8E493A363
:10058400FAE493A3F8E493A3C8C582C8CAC583CA8E
:10059400F0A3C8C582C8CAC583CADFE9DEE780BE46
:0108D7000020
:00000001FF
